S012000050726F796563746F20322E737265636B
S11300000C9434000C9449000C9449000C9449005D
S11300100C9449000C9449000C9449000C94490038
S11300200C9449000C9449000C9449000C94490028
S11300300C9449000C9449000C9449000C94490018
S11300400C9449000C9449000C9449000C94490008
S11300500C9449000C9449000C9449000C944900F8
S11300600C9449000C94490011241FBECFEFD8E032
S1130070DEBFCDBF14E0A0E0B1E0EAEEFCE002C0D8
S113008005900D92A236B107D9F70E945F050C9432
S113009073060C940000FC0150E02BC03196808163
S11300A0882321F090ED980F9A30C0F7882331F11E
S11300B020E030E010C0D901AA0FBB1F220F331F6C
S11300C0220F331F220F331F2A0F3B1F3196280F95
S11300D0311D20533109808190ED980F9A3058F3E7
S11300E0A52FB0E0AA0FBB1FA60FB71F2D933C93FB
S11300F05F5F8081882311F0541788F281E05413E4
S113010080E0089580E480937C0087E880937A00FF
S11301100895ECE7F0E09081907F8770892B8064EC
S11301208083EAE7F0E080818064808380917A00B4
S113013086FDFCCF809178009091790008959C0110
S1130140A0EDB7E00E9436062FEF33E040E050E028
S11301500E941406C9018C509E4F08950F931F935B
S1130160AC0160E070E0DB01CA01880F991FAA1F8F
S1130170BB1F840F951FA61FB71FAC01BD01440F01
S1130180551F661F771F440F551F661F771F8C016D
S11301909D01040F151F261F371FC901B8012FEF3A
S11301A033E040E050E00E94140680E1820F1F918A
S11301B00F910895853B910510F084EB90E09C012C
S11301C0A0EDB7E00E94360624EB30E040E050E0BA
S11301D00E941406C9018C509E4F08950F931F93DB
S11301E0853B910510F084EB90E0AC0160E070E099
S11301F0DB01CA01880F991FAA1FBB1F840F951F1B
S1130200A61FB71FAC01BD01440F551F661F771F02
S1130210440F551F661F771F8C019D01040F151F86
S1130220261F371FC901B80124EB30E040E050E03D
S11302300E94140680E1820F1F910F9108959093FC
S1130240C5008093C40088E18093C10086E0809358
S1130250C20008959091C00095FFFCCF8093C60022
S113026008958091C0008823E4F78091C600089522
S11302708091C000881F8827881F0895CF93DF933B
S1130280EC0103C021960E942A0188818111FACFD2
S1130290DF91CF91089588E091E00E943E0187E2CA
S11302A091E00E943E0188E391E00E943E0189E4CE
S11302B091E00E943E0183E691E00E943E01089590
S11302C01F93CF93DF9300D000D000D0CDB7DEB71B
S11302D0AC01892B91F580E30E942A013FC09A0169
S11302E0ADECBCEC0E94360696958795969587955D
S11302F0969587959C01220F331F880F991F880FAD
S1130300991F880F991F820F931F9A01281B390B7D
S1130310C901E1E0F0E0EC0FFD1FE10FF11D805D8C
S113032080839A010E943606AC01569547955695EE
S11303304795569547951F5F01C010E0411551053B
S113034071F60AC01150E1E0F0E0EC0FFD1FE10F7F
S1130350F11D80810E942A011111F4CF26960FB657
S1130360F894DEBF0FBECDBFDF91CF911F910895EA
S11303700F931F93CF930E943101C82F8032D9F37A
S11303808D30C9F38A30B9F300E010E015C08C2F2A
S11303900E942A01C801880F991F000F111F000F26
S11303A0111F000F111F080F191F0C0F111D0053EF
S11303B011090E943101C82F80ED8C0F8A3038F367
S11303C0C801CF911F910F91089584B1806284B9BF
S11303D00895823041F0833051F0813061F485B169
S11303E0806285B9089585B18F7D85B9089595B1E9
S11303F080E2892785B908950F931F93CF93DF93E4
S11304008B01D42FC22FBC0180E00E94A405B80147
S113041081E00E94A4056D2F80E00E94E6056C2F08
S113042081E00E94E605DF91CF911F910F9108951D
S1130430CF92DF92EF92FF920F931F93CF93DF93AC
S11304407B01EA016901853B910510F084EB90E0A2
S113045025EBE216F10428F00F2EF4EBEF2EF12C2D
S1130460F02DC53BD10510F0C4EBD0E025EBC2164E
S1130470D10428F00F2EF4EBCF2ED12CF02D0E94B6
S1130480DA008C019093070180930601C7010E9452
S1130490DA007C019093050180930401CE010E944F
S11304A0EE00C82FD0E0D0930301C0930201C6012F
S11304B00E94EE00282F30E03093010120930001C8
S11304C0AE01B701C8010E94FC01DF91CF911F91D9
S11304D00F91FF90EF90DF90CF900895CF92DF922D
S11304E0EF92FF920F931F93CF93DF938431E0F445
S11304F079016A01C82FD0E0CC0FDD1FCC0FDD1FBE
S1130500CC0FDD1FCE010E944B06B601CE01029630
S11305100E944B06B701CE0104960E944B06B80117
S1130520CE0106960E944B06DF91CF911F910F9149
S1130530FF90EF90DF90CF9008950F931F93CF9388
S1130540DF93CDB7DEB728970FB6F894DEBF0FBEA2
S1130550CDBFFC0190819D3411F09D36D1F544E06E
S1130560BE016F5F7F4FCF010E944B00811105C018
S113057085E791E00E943E016BC02F8138854D8153
S11305805E816B817C8189819A810E9418028FE946
S113059091E00E943E0110E015C0E12FF0E0EE0F63
S11305A0FF1F81E090E08C0F9D1FE80FF91F8081F1
S11305B091810E946001133020F483E493E00E944F
S11305C03E011F5F143048F387EC91E00E943E0126
S11305D03FC0973411F09736B9F541E0BE016F5F23
S11305E07F4FCF010E944B00811105C08CEA91E03E
S11305F00E943E012DC089819A818431910528F0A1
S11306008AEC91E00E943E0123C000910001109108
S113061001012091020130910301409104015091A4
S1130620050160910601709107010E946E028DED33
S113063091E00E943E0189819A810E9460018BE1D0
S113064094E00E943E0104C081EF91E00E943E01CB
S113065028960FB6F894DEBF0FBECDBFDF91CF91C1
S11306601F910F9108950F931F93CF93DF93CDB7ED
S1130670DEB7E2970FB6F894DEBF0FBECDBF83E0BE
S11306800E94E9018AE092E00E943E0183E292E046
S11306900E943E0180E592E00E943E0183E892E0E0
S11306A00E943E018FE992E00E943E0110E00E9408
S11306B038018823E1F30E943101833511F0833737
S11306C029F488EA92E00E943E0142C08D3079F319
S11306D08A3069F3883011F08F3741F4112339F3EC
S11306E0115083EC92E00E943E01E1CF8332B9F4D1
S11306F0E1E0F0E0EC0FFD1FE10FF11D108286EC4C
S113070091E00E943E01112321F0CE0101960E9446
S11307109D028FE992E00E943E0110E0C8CF1133A0
S113072068F401E0010FE1E0F0E0EC0FFD1FE10FE0
S1130730F11D80830E942A01102FB9CF87EC92E02B
S11307400E943E018FE992E00E943E0110E0AFCF8B
S1130750E2960FB6F894DEBF0FBECDBFDF91CF9106
S11307601F910F910895CF92DF92EF92FF92CF9352
S1130770DF93D82FC0E0C12CD12C76010EC08D2F71
S11307800E948900C80ED91EE11CF11C8FE99FE06C
S11307900197F1F700C00000CF5FC83080F3D701A4
S11307A0C601689412F8B695A795979587951694FF
S11307B0D1F7DF91CF91FF90EF90DF90CF90089524
S11307C00F931F93CF93DF9381E00E94E9018BEE97
S11307D092E00E943E0183E093E00E943E0180E0AB
S11307E00E94B3030E949F00909307018093060127
S11307F081E00E94B3030E949F00909305018093BF
S1130800040182E00E94B3030E94AE0090E0909342
S113081003018093020183E00E94B3030E94AE00AF
S1130820282F30E030930101209300014091020110
S113083050910301609104017091050180910601BA
S1130840909107010E94FC010E943801882309F459
S113085041C00E943101873411F0873691F586E258
S113086093E00E943E010E94B801EC0187EC91E004
S11308700E943E01C43128F08AEC91E00E943E01BE
S113088029C00091000110910101209102013091D1
S1130890030140910401509105016091060170919A
S11308A007018C2F0E946E028DED91E00E943E01A3
S11308B0CE0199270E9460018BE194E00E943E01E1
S11308C009C0833511F0833729F485E493E00E944D
S11308D03E010AC02FEF89EF90E021508040904004
S11308E0E1F700C000007BCFDF91CF911F910F9102
S11308F00895AF92BF92CF92DF92EF92FF920F933F
S11309001F93CF93DF93843130F579016A015B0142
S1130910C82FD0E0CC0FDD1FCC0FDD1FCC0FDD1FA7
S1130920CE010E944506F50191838083CE01029693
S11309300E944506F60191838083CE0104960E94AD
S11309404506F70191838083CE0106960E944506F1
S1130950F80191838083DF91CF911F910F91FF90D4
S1130960EF90DF90CF90BF90AF9008950F931F93B7
S1130970CF93DF9382E00E94E90182E693E00E9434
S11309803E018EE793E00E943E018BE993E00E94D2
S11309903E018DEB93E00E943E0188EC93E00E94BF
S11309A03E010E943101C82F0E942A0187EC91E088
S11309B00E943E01C13391F588E293E00E943E011A
S11309C00E94B801EC0187EC91E00E943E01C43121
S11309D028F08AEC91E00E943E01CFCF0091000103
S11309E01091010120910201309103014091040111
S11309F05091050160910601709107018C2F0E94AE
S1130A006E028DED91E00E943E01CE0199270E9475
S1130A1060018BE194E00E943E01AFCFC233E1F567
S1130A2081ED93E00E943E010E94B801EC0187EC45
S1130A3091E00E943E01C43128F08AEC91E00E94CA
S1130A403E019BCF00E011E022E031E044E051E0C0
S1130A5066E071E08C2F0E947904209100013091AE
S1130A6001014091020150910301609104017091D0
S1130A70050180910601909107010E94FC018EEE10
S1130A8093E00E943E01CE0199270E9460018BE110
S1130A9094E00E943E0171CFC33511F0C33729F4AD
S1130AA084E094E00E943E0105C08FE194E00E943E
S1130AB03E0163CFDF91CF911F910F9108950E9462
S1130AC0820087E690E00E941F010E94C0050E94F8
S1130AD0F6050E94E5012091000130910101409149
S1130AE0020150910301609104017091050180910C
S1130AF00601909107010E94FC0183E394E00E94A7
S1130B003E0189E494E00E943E010E944B010E9450
S1130B103101C82F0E942A0187EC91E00E943E0116
S1130B20C23339F0C33341F0C13349F40E94E003C6
S1130B30ECCF0E94B604E9CF0E943303E6CF8FE1E5
S1130B4094E00E943E01E1CF643F91E0790710F404
S1130B5064EF71E0653C99E0790710F064EC79E0AA
S1130B60660F771F811105C0709389006093880018
S1130B700895813021F470938B0060938A00089566
S1130B8084B1866084B9A0E8B0E01C92E1E8F0E0AA
S1130B9010828C9182608C938081886180838C9197
S1130BA0806A8C938081826080838FE39CE9909338
S1130BB08700809386006CED75E080E00E94A405B8
S1130BC06CED75E081E00E94A4050895603108F49D
S1130BD060E1603208F06FE1811103C06093B300FB
S1130BE00895813011F46093B400089584B188604D
S1130BF084B98AB188608AB9E0EBF0E01082A1EB95
S1130C00B0E01C928081836080838081806A8083CD
S1130C108C9187608C9368E180E00E94E60568E12E
S1130C2081E00E94E6050895A1E21A2EAA1BBB1BCF
S1130C30FD010DC0AA1FBB1FEE1FFF1FA217B307A4
S1130C40E407F50720F0A21BB30BE40BF50B661FBA
S1130C50771F881F991F1A9469F76095709580957E
S1130C6090959B01AC01BD01CF010895A29FB001F5
S1130C70B39FC001A39F700D811D1124911DB29FCC
S1130C80700D811D1124911D0895A8E1B0E042E08A
S1130C9050E00C9453060196272F0E9462060C9490
S1130CA06106DC01CB01FC01F999FECF06C0F2BD5F
S1130CB0E1BDF89A319600B40D9241505040B8F716
S1130CC00895262FF999FECF92BD81BDF89A019718
S1130CD000B4021639F01FBA20BD0FB6F894FA9A80
S10D0CE0F99A0FBE0895F894FFCFAF
S1130CEA18001800DC05DC050D0A3D3D3D3D3D209C
S1130CFA4D454E55205052494E434950414C203D92
S1130D0A3D3D3D3D0D0A00312E204D6F646F204D4F
S1130D1A616E75616C0D0A00322E204D6F646F206E
S1130D2A454550524F4D0D0A00332E204D6F646FC6
S1130D3A2055415254202F204164616672756974AA
S1130D4A0D0A0053656C656363696F6E65206D6F88
S1130D5A646F3A2000466F726D61746F20696E7613
S1130D6A616C69646F2E205573653A204D203930C1
S1130D7A2034352031323020313830230D0A004DE9
S1130D8A6F76696D69656E746F3A2000466F726D8D
S1130D9A61746F20696E76616C69646F2E20557375
S1130DAA653A20472030230D0A00496E6469636559
S1130DBA20696E76616C69646F2E0D0A004775614D
S1130DCA726461646F20656E20696E64696365206C
S1130DDA00436F6D616E646F206E6F207265636F7E
S1130DEA6E6F6369646F2E0D0A000D0A4D6F646F8E
S1130DFA2055415254202F204164616672756974EA
S1130E0A0D0A004D2039302034352031323020315A
S1130E1A383023202D3E206D6F76657220736572FB
S1130E2A766F7320656E20677261646F730D0A00B2
S1130E3A472030232020202020202020202020206A
S1130E4A202D3E206775617264617220706F736928
S1130E5A63696F6E20656E20696E6469636520300C
S1130E6A0D0A00532020202020202020202020208A
S1130E7A202020202D3E2073616C69720D0A000D1A
S1130E8A0A554152543E20000D0A53616C69656E3D
S1130E9A646F206465204D6F646F20554152542E4F
S1130EAA0D0A00082008000D0A427566666572205C
S1130EBA6C6C656E6F2E20496E74656E7465206461
S1130ECA65206E7565766F2E0D0A000D0A4D6F64E6
S1130EDA6F204D616E75616C2061637469766F2E43
S1130EEA0D0A0047203D20677561726461722070A3
S1130EFA6F736963696F6E207C2053203D20736190
S1130F0A6C69720D0A000D0A496E64696365207082
S1130F1A61726120677561726461722028302D31B3
S1130F2A39293A20000D0A53616C69656E646F2091
S1130F3A6465204D6F646F204D616E75616C2E0D72
S1130F4A0A000D0A3D3D3D3D3D204D4F444F20458D
S1130F5A4550524F4D203D3D3D3D3D0D0A00312E39
S1130F6A204775617264617220706F736963696F77
S1130F7A6E2061637475616C0D0A00322E2052650D
S1130F8A70726F647563697220706F736963696FD5
S1130F9A6E2067756172646164610D0A00532E20C4
S1130FAA53616C69720D0A004F7063696F6E3A205F
S1130FBA00496E64696365206120726570726F64AA
S1130FCA756369722028302D3139293A2000526517
S1130FDA70726F64756369656E646F20696E6469A3
S1130FEA6365200053616C69656E646F20646520D3
S1130FFA4D6F646F20454550524F4D2E0D0A004FD8
S113100A7063696F6E206E6F2076616C6964612EFD
S113101A0D0A000D0A53697374656D6120696E695E
S113102A636961646F2E0D0A004272617A6F206DE2
S113103A6563616E69636F206C6973746F2E0D0A40
S105104A0000A0
S9030000FC
